{
  "_format": "hh-sol-artifact-1",
  "contractName": "MyToken",
  "sourceName": "contracts/MyToken.sol",
  "abi": [
    {
      "inputs": [
        {
          "internalType": "uint256",
          "name": "initialSupply",
          "type": "uint256"
        }
      ],
      "stateMutability": "nonpayable",
      "type": "constructor"
    },
    {
      "inputs": [
        {
          "internalType": "address",
          "name": "spender",
          "type": "address"
        },
        {
          "internalType": "uint256",
          "name": "allowance",
          "type": "uint256"
        },
        {
          "internalType": "uint256",
          "name": "needed",
          "type": "uint256"
        }
      ],
      "name": "ERC20InsufficientAllowance",
      "type": "error"
    },
    {
      "inputs": [
        {
          "internalType": "address",
          "name": "sender",
          "type": "address"
        },
        {
          "internalType": "uint256",
          "name": "balance",
          "type": "uint256"
        },
        {
          "internalType": "uint256",
          "name": "needed",
          "type": "uint256"
        }
      ],
      "name": "ERC20InsufficientBalance",
      "type": "error"
    },
    {
      "inputs": [
        {
          "internalType": "address",
          "name": "approver",
          "type": "address"
        }
      ],
      "name": "ERC20InvalidApprover",
      "type": "error"
    },
    {
      "inputs": [
        {
          "internalType": "address",
          "name": "receiver",
          "type": "address"
        }
      ],
      "name": "ERC20InvalidReceiver",
      "type": "error"
    },
    {
      "inputs": [
        {
          "internalType": "address",
          "name": "sender",
          "type": "address"
        }
      ],
      "name": "ERC20InvalidSender",
      "type": "error"
    },
    {
      "inputs": [
        {
          "internalType": "address",
          "name": "spender",
          "type": "address"
        }
      ],
      "name": "ERC20InvalidSpender",
      "type": "error"
    },
    {
      "inputs": [
        {
          "internalType": "address",
          "name": "owner",
          "type": "address"
        }
      ],
      "name": "OwnableInvalidOwner",
      "type": "error"
    },
    {
      "inputs": [
        {
          "internalType": "address",
          "name": "account",
          "type": "address"
        }
      ],
      "name": "OwnableUnauthorizedAccount",
      "type": "error"
    },
    {
      "anonymous": false,
      "inputs": [
        {
          "indexed": true,
          "internalType": "address",
          "name": "owner",
          "type": "address"
        },
        {
          "indexed": true,
          "internalType": "address",
          "name": "spender",
          "type": "address"
        },
        {
          "indexed": false,
          "internalType": "uint256",
          "name": "value",
          "type": "uint256"
        }
      ],
      "name": "Approval",
      "type": "event"
    },
    {
      "anonymous": false,
      "inputs": [
        {
          "indexed": true,
          "internalType": "address",
          "name": "previousOwner",
          "type": "address"
        },
        {
          "indexed": true,
          "internalType": "address",
          "name": "newOwner",
          "type": "address"
        }
      ],
      "name": "OwnershipTransferred",
      "type": "event"
    },
    {
      "anonymous": false,
      "inputs": [
        {
          "indexed": true,
          "internalType": "address",
          "name": "owner",
          "type": "address"
        },
        {
          "indexed": true,
          "internalType": "address",
          "name": "spender",
          "type": "address"
        },
        {
          "indexed": false,
          "internalType": "uint256",
          "name": "amount",
          "type": "uint256"
        }
      ],
      "name": "TokensApproved",
      "type": "event"
    },
    {
      "anonymous": false,
      "inputs": [
        {
          "indexed": true,
          "internalType": "address",
          "name": "from",
          "type": "address"
        },
        {
          "indexed": true,
          "internalType": "address",
          "name": "to",
          "type": "address"
        },
        {
          "indexed": false,
          "internalType": "uint256",
          "name": "value",
          "type": "uint256"
        }
      ],
      "name": "Transfer",
      "type": "event"
    },
    {
      "inputs": [
        {
          "internalType": "address",
          "name": "owner",
          "type": "address"
        },
        {
          "internalType": "address",
          "name": "spender",
          "type": "address"
        }
      ],
      "name": "allowance",
      "outputs": [
        {
          "internalType": "uint256",
          "name": "",
          "type": "uint256"
        }
      ],
      "stateMutability": "view",
      "type": "function"
    },
    {
      "inputs": [
        {
          "internalType": "address",
          "name": "spender",
          "type": "address"
        },
        {
          "internalType": "uint256",
          "name": "value",
          "type": "uint256"
        }
      ],
      "name": "approve",
      "outputs": [
        {
          "internalType": "bool",
          "name": "",
          "type": "bool"
        }
      ],
      "stateMutability": "nonpayable",
      "type": "function"
    },
    {
      "inputs": [
        {
          "internalType": "address",
          "name": "spender",
          "type": "address"
        },
        {
          "internalType": "uint256",
          "name": "amount",
          "type": "uint256"
        }
      ],
      "name": "approveTokens",
      "outputs": [
        {
          "internalType": "bool",
          "name": "",
          "type": "bool"
        }
      ],
      "stateMutability": "nonpayable",
      "type": "function"
    },
    {
      "inputs": [
        {
          "internalType": "address",
          "name": "account",
          "type": "address"
        }
      ],
      "name": "balanceOf",
      "outputs": [
        {
          "internalType": "uint256",
          "name": "",
          "type": "uint256"
        }
      ],
      "stateMutability": "view",
      "type": "function"
    },
    {
      "inputs": [],
      "name": "decimals",
      "outputs": [
        {
          "internalType": "uint8",
          "name": "",
          "type": "uint8"
        }
      ],
      "stateMutability": "view",
      "type": "function"
    },
    {
      "inputs": [
        {
          "internalType": "address",
          "name": "owner",
          "type": "address"
        },
        {
          "internalType": "address",
          "name": "spender",
          "type": "address"
        }
      ],
      "name": "getAllowance",
      "outputs": [
        {
          "internalType": "uint256",
          "name": "",
          "type": "uint256"
        }
      ],
      "stateMutability": "view",
      "type": "function"
    },
    {
      "inputs": [
        {
          "internalType": "address",
          "name": "to",
          "type": "address"
        },
        {
          "internalType": "uint256",
          "name": "amount",
          "type": "uint256"
        }
      ],
      "name": "mint",
      "outputs": [],
      "stateMutability": "nonpayable",
      "type": "function"
    },
    {
      "inputs": [],
      "name": "name",
      "outputs": [
        {
          "internalType": "string",
          "name": "",
          "type": "string"
        }
      ],
      "stateMutability": "view",
      "type": "function"
    },
    {
      "inputs": [],
      "name": "owner",
      "outputs": [
        {
          "internalType": "address",
          "name": "",
          "type": "address"
        }
      ],
      "stateMutability": "view",
      "type": "function"
    },
    {
      "inputs": [],
      "name": "renounceOwnership",
      "outputs": [],
      "stateMutability": "nonpayable",
      "type": "function"
    },
    {
      "inputs": [],
      "name": "symbol",
      "outputs": [
        {
          "internalType": "string",
          "name": "",
          "type": "string"
        }
      ],
      "stateMutability": "view",
      "type": "function"
    },
    {
      "inputs": [],
      "name": "totalSupply",
      "outputs": [
        {
          "internalType": "uint256",
          "name": "",
          "type": "uint256"
        }
      ],
      "stateMutability": "view",
      "type": "function"
    },
    {
      "inputs": [
        {
          "internalType": "address",
          "name": "to",
          "type": "address"
        },
        {
          "internalType": "uint256",
          "name": "value",
          "type": "uint256"
        }
      ],
      "name": "transfer",
      "outputs": [
        {
          "internalType": "bool",
          "name": "",
          "type": "bool"
        }
      ],
      "stateMutability": "nonpayable",
      "type": "function"
    },
    {
      "inputs": [
        {
          "internalType": "address",
          "name": "from",
          "type": "address"
        },
        {
          "internalType": "address",
          "name": "to",
          "type": "address"
        },
        {
          "internalType": "uint256",
          "name": "value",
          "type": "uint256"
        }
      ],
      "name": "transferFrom",
      "outputs": [
        {
          "internalType": "bool",
          "name": "",
          "type": "bool"
        }
      ],
      "stateMutability": "nonpayable",
      "type": "function"
    },
    {
      "inputs": [
        {
          "internalType": "address",
          "name": "newOwner",
          "type": "address"
        }
      ],
      "name": "transferOwnership",
      "outputs": [],
      "stateMutability": "nonpayable",
      "type": "function"
    }
  ],
  "bytecode": "0x60806040523480156200001157600080fd5b5060405162000f1b38038062000f1b8339810160408190526200003491620002bf565b336040518060400160405280600781526020016626bcaa37b5b2b760c91b815250604051806040016040528060038152602001624d544b60e81b81525081600390816200008291906200037e565b5060046200009182826200037e565b5050506001600160a01b038116620000c457604051631e4fbdf760e01b8152600060048201526024015b60405180910390fd5b620000cf81620000fc565b50620000f533620000e36012600a6200055f565b620000ef908462000577565b6200014e565b50620005a7565b600580546001600160a01b038381166001600160a01b0319831681179093556040519116919082907f8be0079c531659141344cd1fd0a4f28419497f9722a3daafe3b4186f6b6457e090600090a35050565b6001600160a01b0382166200017a5760405163ec442f0560e01b815260006004820152602401620000bb565b62000188600083836200018c565b5050565b6001600160a01b038316620001bb578060026000828254620001af919062000591565b909155506200022f9050565b6001600160a01b03831660009081526020819052604090205481811015620002105760405163391434e360e21b81526001600160a01b03851660048201526024810182905260448101839052606401620000bb565b6001600160a01b03841660009081526020819052604090209082900390555b6001600160a01b0382166200024d576002805482900390556200026c565b6001600160a01b03821660009081526020819052604090208054820190555b816001600160a01b0316836001600160a01b03167fddf252ad1be2c89b69c2b068fc378daa952ba7f163c4a11628f55a4df523b3ef83604051620002b291815260200190565b60405180910390a3505050565b600060208284031215620002d257600080fd5b5051919050565b634e487b7160e01b600052604160045260246000fd5b600181811c908216806200030457607f821691505b6020821081036200032557634e487b7160e01b600052602260045260246000fd5b50919050565b601f8211156200037957600081815260208120601f850160051c81016020861015620003545750805b601f850160051c820191505b81811015620003755782815560010162000360565b5050505b505050565b81516001600160401b038111156200039a576200039a620002d9565b620003b281620003ab8454620002ef565b846200032b565b602080601f831160018114620003ea5760008415620003d15750858301515b600019600386901b1c1916600185901b17855562000375565b600085815260208120601f198616915b828110156200041b57888601518255948401946001909101908401620003fa565b50858210156200043a5787850151600019600388901b60f8161c191681555b5050505050600190811b01905550565b634e487b7160e01b600052601160045260246000fd5b600181815b80851115620004a15781600019048211156200048557620004856200044a565b808516156200049357918102915b93841c939080029062000465565b509250929050565b600082620004ba5750600162000559565b81620004c95750600062000559565b8160018114620004e25760028114620004ed576200050d565b600191505062000559565b60ff8411156200050157620005016200044a565b50506001821b62000559565b5060208310610133831016604e8410600b841016171562000532575081810a62000559565b6200053e838362000460565b80600019048211156200055557620005556200044a565b0290505b92915050565b60006200057060ff841683620004a9565b9392505050565b80820281158282048414176200055957620005596200044a565b808201808211156200055957620005596200044a565b61096480620005b76000396000f3fe608060405234801561001057600080fd5b50600436106100f55760003560e01c806370a0823111610097578063a9059cbb11610066578063a9059cbb146101ef578063dd62ed3e14610202578063f2fde38b14610215578063f38488ec1461022857600080fd5b806370a082311461019b578063715018a6146101c45780638da5cb5b146101cc57806395d89b41146101e757600080fd5b806318160ddd116100d357806318160ddd1461015c57806323b872dd14610164578063313ce5671461017757806340c10f191461018657600080fd5b806306fdde03146100fa578063095ea7b3146101185780630af4187d1461013b575b600080fd5b61010261023b565b60405161010f91906107b5565b60405180910390f35b61012b61012636600461081f565b6102cd565b604051901515815260200161010f565b61014e610149366004610849565b6102e7565b60405190815260200161010f565b60025461014e565b61012b61017236600461087c565b6102fa565b6040516012815260200161010f565b61019961019436600461081f565b61031e565b005b61014e6101a93660046108b8565b6001600160a01b031660009081526020819052604090205490565b610199610334565b6005546040516001600160a01b03909116815260200161010f565b610102610348565b61012b6101fd36600461081f565b610357565b61014e610210366004610849565b610365565b6101996102233660046108b8565b610390565b61012b61023636600461081f565b6103d3565b60606003805461024a906108d3565b80601f0160208091040260200160405190810160405280929190818152602001828054610276906108d3565b80156102c35780601f10610298576101008083540402835291602001916102c3565b820191906000526020600020905b8154815290600101906020018083116102a657829003601f168201915b5050505050905090565b6000336102db818585610429565b60019150505b92915050565b60006102f38383610365565b9392505050565b60003361030885828561043b565b6103138585856104a2565b506001949350505050565b610326610501565b610330828261052e565b5050565b61033c610501565b6103466000610564565b565b60606004805461024a906108d3565b6000336102db8185856104a2565b6001600160a01b03918216600090815260016020908152604080832093909416825291909152205490565b610398610501565b6001600160a01b0381166103c757604051631e4fbdf760e01b8152600060048201526024015b60405180910390fd5b6103d081610564565b50565b60006103df83836102cd565b506040518281526001600160a01b0384169033907fd2eef00c61123a702983a0db81510e0d6f591df55acff9852f8cfdc23320db9d9060200160405180910390a350600192915050565b61043683838360016105b6565b505050565b60006104478484610365565b905060001981101561049c578181101561048d57604051637dc7a0d960e11b81526001600160a01b038416600482015260248101829052604481018390526064016103be565b61049c848484840360006105b6565b50505050565b6001600160a01b0383166104cc57604051634b637e8f60e11b8152600060048201526024016103be565b6001600160a01b0382166104f65760405163ec442f0560e01b8152600060048201526024016103be565b61043683838361068b565b6005546001600160a01b031633146103465760405163118cdaa760e01b81523360048201526024016103be565b6001600160a01b0382166105585760405163ec442f0560e01b8152600060048201526024016103be565b6103306000838361068b565b600580546001600160a01b038381166001600160a01b0319831681179093556040519116919082907f8be0079c531659141344cd1fd0a4f28419497f9722a3daafe3b4186f6b6457e090600090a35050565b6001600160a01b0384166105e05760405163e602df0560e01b8152600060048201526024016103be565b6001600160a01b03831661060a57604051634a1406b160e11b8152600060048201526024016103be565b6001600160a01b038085166000908152600160209081526040808320938716835292905220829055801561049c57826001600160a01b0316846001600160a01b03167f8c5be1e5ebec7d5bd14f71427d1e84f3dd0314c0f7b2291e5b200ac8c7c3b9258460405161067d91815260200190565b60405180910390a350505050565b6001600160a01b0383166106b65780600260008282546106ab919061090d565b909155506107289050565b6001600160a01b038316600090815260208190526040902054818110156107095760405163391434e360e21b81526001600160a01b038516600482015260248101829052604481018390526064016103be565b6001600160a01b03841660009081526020819052604090209082900390555b6001600160a01b03821661074457600280548290039055610763565b6001600160a01b03821660009081526020819052604090208054820190555b816001600160a01b0316836001600160a01b03167fddf252ad1be2c89b69c2b068fc378daa952ba7f163c4a11628f55a4df523b3ef836040516107a891815260200190565b60405180910390a3505050565b600060208083528351808285015260005b818110156107e2578581018301518582016040015282016107c6565b506000604082860101526040601f19601f8301168501019250505092915050565b80356001600160a01b038116811461081a57600080fd5b919050565b6000806040838503121561083257600080fd5b61083b83610803565b946020939093013593505050565b6000806040838503121561085c57600080fd5b61086583610803565b915061087360208401610803565b90509250929050565b60008060006060848603121561089157600080fd5b61089a84610803565b92506108a860208501610803565b9150604084013590509250925092565b6000602082840312156108ca57600080fd5b6102f382610803565b600181811c908216806108e757607f821691505b60208210810361090757634e487b7160e01b600052602260045260246000fd5b50919050565b808201808211156102e157634e487b7160e01b600052601160045260246000fdfea26469706673582212200e4c6cdd17d6ad011ca3a966ebd8bd5f3f003da3ad44f04e28a10b7206257e2364736f6c63430008140033",
  "linkReferences": {},
  "deployedLinkReferences": {}
}